{
  "_format": "hh-sol-artifact-1",
  "contractName": "Transaction",
  "sourceName": "contracts/Transaction.sol",
  "abi": [
    {
      "inputs": [],
      "stateMutability": "payable",
      "type": "constructor"
    },
    {
      "inputs": [],
      "name": "OnlyBuyer",
      "type": "error"
    },
    {
      "inputs": [],
      "name": "OnlySeller",
      "type": "error"
    },
    {
      "inputs": [],
      "name": "abort",
      "outputs": [],
      "stateMutability": "nonpayable",
      "type": "function"
    },
    {
      "inputs": [],
      "name": "ask3",
      "outputs": [
        {
          "internalType": "address payable",
          "name": "",
          "type": "address"
        }
      ],
      "stateMutability": "view",
      "type": "function"
    },
    {
      "inputs": [],
      "name": "buyer",
      "outputs": [
        {
          "internalType": "address payable",
          "name": "",
          "type": "address"
        }
      ],
      "stateMutability": "view",
      "type": "function"
    },
    {
      "inputs": [],
      "name": "confirmPurchase",
      "outputs": [],
      "stateMutability": "payable",
      "type": "function"
    },
    {
      "inputs": [],
      "name": "confirmSale",
      "outputs": [],
      "stateMutability": "nonpayable",
      "type": "function"
    },
    {
      "inputs": [],
      "name": "confirmSeller",
      "outputs": [],
      "stateMutability": "payable",
      "type": "function"
    },
    {
      "inputs": [],
      "name": "getBalance",
      "outputs": [
        {
          "internalType": "uint256",
          "name": "",
          "type": "uint256"
        }
      ],
      "stateMutability": "view",
      "type": "function"
    },
    {
      "inputs": [],
      "name": "seller",
      "outputs": [
        {
          "internalType": "address payable",
          "name": "",
          "type": "address"
        }
      ],
      "stateMutability": "view",
      "type": "function"
    },
    {
      "inputs": [],
      "name": "value",
      "outputs": [
        {
          "internalType": "uint256",
          "name": "",
          "type": "uint256"
        }
      ],
      "stateMutability": "view",
      "type": "function"
    },
    {
      "inputs": [],
      "name": "withdraw",
      "outputs": [],
      "stateMutability": "nonpayable",
      "type": "function"
    },
    {
      "stateMutability": "payable",
      "type": "receive"
    }
  ],
  "bytecode": "0x608060405233600160006101000a81548173ffffffffffffffffffffffffffffffffffffffff021916908373ffffffffffffffffffffffffffffffffffffffff160217905550610837806100546000396000f3fe6080604052600436106100955760003560e01c80633ccfd60b116100595780633ccfd60b146101505780633fa4f245146101675780637150d8ae14610192578063bddd1a28146101bd578063d6960697146101c75761009c565b806308551a53146100a157806312065fe0146100cc578063157f62da146100f75780631f7b88841461012257806335a063b4146101395761009c565b3661009c57005b600080fd5b3480156100ad57600080fd5b506100b66101d1565b6040516100c39190610626565b60405180910390f35b3480156100d857600080fd5b506100e16101f7565b6040516100ee9190610661565b60405180910390f35b34801561010357600080fd5b5061010c6101ff565b6040516101199190610626565b60405180910390f35b34801561012e57600080fd5b50610137610225565b005b34801561014557600080fd5b5061014e610331565b005b34801561015c57600080fd5b50610165610423565b005b34801561017357600080fd5b5061017c61052c565b6040516101899190610661565b60405180910390f35b34801561019e57600080fd5b506101a7610532565b6040516101b49190610626565b60405180910390f35b6101c5610558565b005b6101cf61059b565b005b600260009054906101000a900473ffffffffffffffffffffffffffffffffffffffff1681565b600047905090565b600160009054906101000a900473ffffffffffffffffffffffffffffffffffffffff1681565b600260009054906101000a900473ffffffffffffffffffffffffffffffffffffffff1673ffffffffffffffffffffffffffffffffffffffff163373ffffffffffffffffffffffffffffffffffffffff16146102ac576040517f85d1f72600000000000000000000000000000000000000000000000000000000815260040160405180910390fd5b600260009054906101000a900473ffffffffffffffffffffffffffffffffffffffff1673ffffffffffffffffffffffffffffffffffffffff166108fc600a60005460096102f991906106be565b610303919061068d565b9081150290604051600060405180830381858888f1935050505015801561032e573d6000803e3d6000fd5b50565b600260009054906101000a900473ffffffffffffffffffffffffffffffffffffffff1673ffffffffffffffffffffffffffffffffffffffff163373ffffffffffffffffffffffffffffffffffffffff16146103b8576040517f85d1f72600000000000000000000000000000000000000000000000000000000815260040160405180910390fd5b600260009054906101000a900473ffffffffffffffffffffffffffffffffffffffff1673ffffffffffffffffffffffffffffffffffffffff166108fc479081150290604051600060405180830381858888f19350505050158015610420573d6000803e3d6000fd5b50565b600160009054906101000a900473ffffffffffffffffffffffffffffffffffffffff1673ffffffffffffffffffffffffffffffffffffffff163373ffffffffffffffffffffffffffffffffffffffff16146104b3576040517f08c379a00000000000000000000000000000000000000000000000000000000081526004016104aa90610641565b60405180910390fd5b600160009054906101000a900473ffffffffffffffffffffffffffffffffffffffff1673ffffffffffffffffffffffffffffffffffffffff166108fc600a6000546104fe919061068d565b9081150290604051600060405180830381858888f19350505050158015610529573d6000803e3d6000fd5b50565b60005481565b600360009054906101000a900473ffffffffffffffffffffffffffffffffffffffff1681565b33600260006101000a81548173ffffffffffffffffffffffffffffffffffffffff021916908373ffffffffffffffffffffffffffffffffffffffff160217905550565b33600360006101000a81548173ffffffffffffffffffffffffffffffffffffffff021916908373ffffffffffffffffffffffffffffffffffffffff16021790555034600081905550565b6105ee81610718565b82525050565b600061060160248361067c565b915061060c826107b2565b604082019050919050565b6106208161074a565b82525050565b600060208201905061063b60008301846105e5565b92915050565b6000602082019050818103600083015261065a816105f4565b9050919050565b60006020820190506106766000830184610617565b92915050565b600082825260208201905092915050565b60006106988261074a565b91506106a38361074a565b9250826106b3576106b2610783565b5b828204905092915050565b60006106c98261074a565b91506106d48361074a565b9250817fffffffffffffffffffffffffffffffffffffffffffffffffffffffffffffffff048311821515161561070d5761070c610754565b5b828202905092915050565b60006107238261072a565b9050919050565b600073ffffffffffffffffffffffffffffffffffffffff82169050919050565b6000819050919050565b7f4e487b7100000000000000000000000000000000000000000000000000000000600052601160045260246000fd5b7f4e487b7100000000000000000000000000000000000000000000000000000000600052601260045260246000fd5b7f4f6e6c7920746865206f776e65722063616e2063616c6c2074686973206d657460008201527f686f642e0000000000000000000000000000000000000000000000000000000060208201525056fea26469706673582212209fc879db31cc9467e96fd0ccf1dc56b1a29c3c94315c8b6af400650988950b2964736f6c63430008070033",
  "linkReferences": {},
  "deployedLinkReferences": {}
}